:030000000212E009
:0C12E000787FE4F6D8FD75812102132709
:10166F004320253033752530337500432025303323
:10167F00753030300043203030303030300025317D
:10168F007520202020253033750046202020202073
:04169F00253275007B
:0818CB004100620041003600FB
:10152D001218481218591218981218A67B017A0031
:10153D0079489000047401F07D0812136C900048F6
:10154D00E0FFD3941E9000345004EFF08003741428
:10155D00F07B017A0079579000047408F0E4FD12D5
:0E156D00136CD2ABD2AF120C1C120E5280F8CF
:03001B0002121AB4
:10121A00C0E0C0F0C083C082C0D075D000C000C09A
:10122A0001C002C003C004C005C006C00790005137
:10123A00E0FCA3E0FDA3E0FEA3E0FFE4FAF9F8EF87
:10124A002401FFEA3EFEE93DFDE83CFC9000511214
:10125A00064C900064E475F0011205FCFEE5F064AA
:10126A000A4E7006900064F0A3F0900055E0FEA3C9
:10127A00E0FF4E602D7C037DE81205A7ED4C90003F
:10128A00627005E004F08004E054FEF0900056E03D
:10129A0024FFF0900055E034FFF0900062E0FF1266
:1012AA00186A7B017A00793F900063E0FD121429E5
:1012BA00900063E004F0B40802E4F0D007D006D04E
:1012CA0005D004D003D002D001D000D0D0D082D033
:0612DA0083D0F0D0E032E9
:100C1C00900064E07002A3E06003020E5190006447
:100C2C00E4F0A304F01210EB900061E06F5FFEEFB4
:100C3C00F0AF06EF24FB7003020DA9147003020D34
:100C4C00D4147003020E0324036003020E49121421
:100C5C008290003DEFF0900034E0FEEFC39E4035F3
:100C6C0090003DE09EFFF0FCE412012E7B5C7A8F3D
:100C7C007982783F12001E120162900037EEF0A3C9
:100C8C00EFF0D394FFEE94004016900037E4F0A3FD
:100C9C0074FFF0800BE490003DF0900037F0A3F06F
:100CAC00E47F04FEFDFC900039E0F8A3E0F9A3E03A
:100CBC00FAA3E0FBC3120636403A7F0474572FF5B3
:100CCC0082E43400F583E014F00FEFB408EEE47B1B
:100CDC0004FAF9F8900039E0FCA3E0FDA3E0FEA3D0
:100CEC00E0FF1215C0745B2BF58274003AF5837427
:100CFC0004F08016900039A3A3A3E0FF04FE745BFC
:100D0C002FF582E43400F583EEF090003DE0FFC057
:100D1C0007E47B04FAF9F8900039E0FCA3E0FDA3AA
:100D2C00E0FEA3E0FF1215C074572BF58274003A55
:100D3C00F583D0E0F0E47B04FAF9F8900039E0FC9C
:100D4C00A3E0FDA3E0FEA3E0FF1215C0900035EB7D
:100D5C00F07B017A0079579000047408F0E4FD12DE
:100D6C0013D0900037A3E0FF12174B900055740B73
:100D7C00F0A374B8F0900039E0FCA3E0FDA3E0FE12
:100D8C00A3E0FFE4FAF9F8EF2401FFEA3EFEE93DA7
:100D9C00FDE83CFC90003912064C020E49900036DE
:100DAC00E054F06410600A7410F0900062E044802B
:100DBC00F0900036E004F064126003020E49F090EB
:100DCC000062E0547FF08075900036E054F06420AF
:100DDC00600D900062E04440F09000367420F0907A
:100DEC000036E004F064227054900062E054BFF0CE
:100DFC00E4900036F08046900036E024EF60332417
:100E0C00F0703A900034E0C3941E5006E0240AF0CF
:100E1C008005E4900034F0900034E0900048F07BC2
:100E2C00017A0079489000047401F07D081213D007
:100E3C00800B900035E004F0B40402E4F090006202
:050E4C00E0FF12186A2E
:010E5100227E
:100E5200900036E054F024F07003020F3F24F0704B
:100E620003020F7A24206003020F9EE47F01FEFD3D
:100E7200FC900039E0F8A3E0F9A3E0FAA3E0FBD389
:100E8200120636407690000374FFF0A37416F0A3A6
:100E9200746FF0900039E0FCA3E0FDA3E0FEA3E054
:100EA20024FFFFEE34FFFEED34FFFDEC34FFFCE4E3
:100EB2007B04FAF9F81215C074572BF58274003AC4
:100EC200F583E0FF900006E4F0A3EFF0900039E034
:100ED200FCA3E0FDA3E0FEA3E024FEFFEE34FFFE50
:100EE200ED34FFFDEC34FFFCE47B04FAF9F8121553
:100EF200C074572BF58274003A8070E47F01FEFDC6
:100F0200FC900039E0F8A3E0F9A3E0FAA3E0FBC308
:100F1200120636900003701974FFF0A37416F0A342
:100F2200747AF0900057E0FF900006E4F0A3EF809F
:100F32006174FFF0A37416F0A374848055900003CB
:100F420074FFF0A37416F0A3748DF0900035E0FFE7
:100F5200245BF582E43400F583E0FD900006E4F0C2
:100F6200A3EDF074572FF582E43400F583E0FF908F
:100F72000008E4F0A3EF801A90000374FFF0A3745A
:100F820016F0A37499F0900034E0FF900006E4F0AC
:100F9200A3EFF07B017A0079481207FE90000374F8
:100FA20001F0A37400F0A3743FF07B017A0079484A
:030FB200020FB576
:10136C00900000EBF0A3EAF0A3E9F0A3EDF0121863
:10137C007A7FA01216A3121837900003E0FF121602
:10138C00A312183712187A7FA11216A312183790CD
:10139C000004E0FF14F0EF60281217CE900000E07C
:1013AC00FBA3E475F001120612A9F0FAEF12057313
:1013BC00900004E06004C2008002D200120003809E
:0413CC00CE0218BF76
:1013D000900000EBF0A3EAF0A3E9F0A3EDF01218FF
:1013E0007A7FA01216A3121837900003E0FF12169E
:1013F000A3121837900004E0FF14F0EF6021900072
:1014000000E0FBA3E475F001120612A9F0FA120540
:101410002DFF1216A31218377FC81218B780D512E5
:0914200018BF7F147E000217B012
:1017B000EF1FAA0670011E4A6013E4FCFDC3ED94FE
:0D17C00074EC940250EA0DBD00010C80F0A5
:0117CD0022F9
:10177100E4FDFCC3ED9FEC9E5015E4FAFB0BBB00AE
:0F178100010ABA54F8BBEAF50DBD00010C80E473
:011790002236
:10160400EE7032EF24FB601314601914601F24037E
:101614007023E5A0541F4480F5A022E5A0541F4484
:10162400A0F5A022E5A0541F44C0F5A022E5A054D3
:061634001F44E0F5A022B6
:0E1898007580FF7F047E0012160453A01F22ED
:0D18A600E4F5807F05FE12160453A01F22FA
:10182300E4FEC297EF1392A3EFC313FFD2970EEE1A
:03183300B408EF07
:01183600228F
:0817EC0075F00A84E5F02EFD02
:1017F400C29300C29700D29300121823AF051218A7
:0418040023C2932246
:10163A00E4FDC29300C29700D29300121823E4FF7C
:10164A00C297EDC313FD30A3034480FDD2970FEF79
:10165A00B408EDC29300C29700D29700C2A300D289
:04166A00A300AF0525
:01166E002259
:1014DB00E4FD7F8E1217F412052DFF75F00A84C4FC
:1014EB0054F0FEEF7F841217EC900001120546FFBB
:1014FB0075F00A84C454F0FEEF7F821217EC900053
:10150B0002120546FF75F00A84C454F0FEEF75F025
:10151B000A84E5F02EFD7F801217F47D807F8E020A
:02152B0017F4B3
:10157B007F8512163AEFC4540F75F00AA4FEEF5490
:10158B000F2E1205737F8312163AEFC4540F75F0AA
:10159B000AA4FEEF540F2E9000011205857F8112D5
:1015AB00163AEFC4540F75F00AA4FEEF540F2E90A9
:0515BB0000020205859D
:0418B300D2A07F053B
:0818B70000AE071FEE70F922DC
:0F187A00D2A11218B3C2A17F051218B7C2A022C3
:0C18BF00C2A11218B3D2A17F050218B715
:10000300C2A0A20092A17F051218B71218B3C2A012
:07001300D2A17F050218B71E
:101837001218B3A2A19200C2A07F051218B7A20086
:01184700227E
:0216A300AD0791
:1016A500E4FCC2A07F051218B7ED30E704D2A18093
:1016B50002C2A17F051218B7D2A0ED25E0FD7F0576
:0A16C5001218B70CECB408DAC2A04A
:0116CF0022F8
:1017CE00E4FC1218B3ED25E0FD30A1034401FDC287
:0D17DE00A07F051218B70CECB408E7AF05AA
:0117EB0022DB
:1010EB00C2C4D2C2D2B5D2B4AFB07E00D2C4C2C2D7
:1010FB00EFC4F8540FC868FFEEC454F048FEE5B0D7
:10110B00540FFDEF4DD2C2C2B5C4F8540FC868FFDF
:10111B00EEC454F048FEE5B0540FFDEF4DD2B5C20E
:10112B00B4C4F8540FC868FFEEC454F048FEE5B0E1
:10113B00540FFDEF4DF4FFEEF4FEEF8EF012069E12
:10114B001207000111FF000211F7000411EF000854
:10115B0011E7001011DF002011D7004011CF0080E4
:10116B0011C7010011BF020011B7040011AF080035
:10117B0011A71000119F200011974000118F8000C4
:10118B000000120F9000007404F0807D900000743A
:10119B0005F080759000007406F0806D900000746F
:1011AB0007F080659000007408F0805D900000747B
:1011BB0009F08055900000740AF0804D9000007487
:1011CB000BF08045900000740CF0803D9000007493
:1011DB000DF08035900000740EF0802D900000749F
:1011EB000FF080259000007410F0801D90000074AB
:1011FB0011F080159000007412F0800D90000074B7
:0E120B0013F08005E4900000F0900000E0FF7A
:0112190022B2
:10186A00EFF4F580E5A0541F4480F5A053A01F2291
:041889007F057E0059
:0B188D00EF1FAC0670011E4C70F6222D
:02179100AD07A2
:10179300E4FBC294ED139294121889D294EDC3130F
:0D17A300FD0BEBB408EC7F057E0002188DF5
:10180800E4FBC294EDC313FDD2943094034480FDED
:0A1818001218890BEBB408EAAF05C3
:0118220022A3
:1016FD00C209D2947F0C7E0012188DC2947F507E49
:10170D000012188DD2947F0A7E0012188DA2949229
:06171D0009121889A2095F
:0117230022A3
:1016D0001216FD7FCC1217917F441217911216FD3E
:1016E0007FCC1217917FBE121791121808AA071209
:0C16F0001808EFFE7C00E42AFFEC3EFE30
:0116FC0022CB
:10174B00900000EFF012187A7F901216A312183740
:10175B007F431216A3121837900000E0FF1216A356
:06176B001200030218BF8A
:0B0FB500900000EBF0A3EAF0A3E9F0CD
:100FC000E4900007F0900006F0900006E0C394085B
:100FD00040030210EA900000E0FBA3E0FAA3E0F96E
:100FE000900007E0F582758300120546120678101E
:100FF000802010882D10902E1020301028311030B5
:1010000032103833104034104835105036105837ED
:101010001060381068391078431070460000109640
:1010200090000874C0F0806E90000874F9F080663B
:1010300090000874A4F0805E90000874B0F08056B0
:101040009000087499F0804E9000087492F08046E9
:101050009000087482F0803E90000874F8F08036AA
:101060009000087480F0802E9000087490F0802624
:10107000900008748EF0801E90000874C6F08016F0
:1010800090000874FFF0800E90000874BFF0800696
:10109000900008747FF0900007E02401FFE433FE25
:1010A000900000E0FBA3E0FAA3E0F98F828E8312A8
:1010B0000546B42E0D900008E0547FF0900007E044
:1010C00004F0900008E0FF900003E0FBA3E0FAA327
:1010D000E0F9A3E0F582758300EF12058590000624
:0A10E000E004F0A3E004F0020FC9E1
:0110EA0022E3
:10142900900030EBF0A3EAF0A3E9F0A3EDF07580AA
:10143900FF7F077E0012160453A01F900033E0FFC0
:101449007401A807088002C333D8FCF5807F067EA3
:101459000012160453A01F900030E0FBA3E0FAA38A
:10146900E0F9A3E0F582758300120546F5807F0750
:091479007E0012160453A01F228C
:101482007E0AC290758AF4758CFFD28CAD061EED71
:10149200600C308DFDA290B39290C28D80EEC28C12
:1014A200E4F58AF58CD28C309103308DFAC28C30FF
:1014B2008D06C28D7FFF8020AF8CEFFEAD8A7C004F
:1014C200E42DFDEC3EFCE41201297B967A43798BF4
:0814D200783C12001E120162B9
:0114DA0022EF
:10184800538E7F5389F0758AF4758CFFC28DC28CD4
:01185800226D
:10185900438E4053890F758B20758DD1C28FD28EDF
:01186900225C
:10001E00EC4D6011E8497017ED33EC3304600DE4DC
:10002E00FCFFFEFD22E933E8330470F80201CE1224
:10003E00019958046009E4CC248150062850090225
:10004E0001D82840030201D5C0E0EB4A7044B980C4
:10005E0006D0E0FB0201C4EF4E701CBD8008EBFF22
:10006E00EAFEE9FD80EBE98DF0A4FEE5F002010762
:10007E00E9CDF9EAFEEBFFEF89F0A4FCE5F0CE89BD
:10008E00F0A42EFFE435F0CD89F0A42DFEE435F07A
:10009E008067EF4E7005BD80D780C3EF8BF0A4ACA8
:1000AE00F0EE8BF0A42CFCE435F0F8EF8AF0A42CE3
:1000BE00E5F038FCE433CB8DF0A42CFCE5F03BF8F6
:1000CE00EE8AF0A42CFCE5F038F8E433CF89F0A4E6
:1000DE002CFCE5F038CF3400CE89F0A42FFFE5F0EC
:1000EE003EFEE433C98DF0A42EFEE5F039CD8AF044
:1000FE00A42FFFE5F03EFEE43DFD33D0E0FB5007BC
:10010E000BBB000F0201D8EC2CFCEF33FFEE33FEDD
:06011E00ED33FD0201B00B
:1001240075F020800E75F010800575F0087D007E56
:10013400007F003392D530D503120628EC334010EB
:10014400EF33FFEE33FEED33FDEC33FCD5F0ED225F
:0E015400E5F0247EA2D513CC92E7CDCEFF229B
:10016200EDD2E7CD33EC3392D524814006E4FFFE95
:10017200FDFC22FCE4CFCECDCC24E0501174FF80F4
:10018200EDC3CC13CCCD13CDCE13CECF13CF047091
:07019200F030D5DE02062863
:10079900E5082403F582E43400F583E00508229096
:1007A9000000300703900003E475F00112065802B7
:1007B900052D2000E97F2ED2008018EF540F2490D8
:1007C900D43440D4FF30040BEF24BFB41A005003D3
:1007D9002461FFE50960021509050CE50C700205A5
:1007E9000B30070E900000E475F001120658EF0275
:1007F90005730217247403D2078003E4C207F508BE
:1008090090000012066FE4F509F50BF50CE5096097
:10081900077F201207DC80F5750AFFC201C200C2FA
:1008290002C203C205C206C2081207A8FF700D3032
:1008390007057F001207EDAF0CAE0B22B4255FC28E
:10084900D5C2041207A8FF24D0B40A00501A75F0C3
:100859000A780930D50508B6FF0106C6A426F62090
:10086900D5047002D20380D924CFB41A00EF500402
:10087900C2E5D204020ADFD20180C6D20080C0D20A
:100889000280BCD2D580BAD20580B47F201207DCA1
:100899002002077401B5090040F1120799FF1207F8
:1008A900DC020816D208D2068095120799FB1207B6
:1008B90099FA120799F94A4B700679DD7A0B7BFF91
:1008C90020022EE509602A7E008E827583001205BA
:1008D9004660060EEE650A70F0C2D5EBC0E0EAC0CC
:1008E900E0E9C0E0EE120B40D0E0F9D0E0FAD0E048
:1008F900FB12052DFF60AAEBC0E0EAC0E0E9C0E009
:100909001207DCD0E02401F9D0E03400FAD0E0FB92
:10091900E50A0460DCD50AD98087D20280A2120BCD
:100929002260F7E50A7001041201E3A90A600DE5E6
:100939000A600914F50A120BCAEF60F3EA30E702FC
:10094900F404C3995079EAF4250A0430E701E40470
:10095900F50A800D120B2260C1EA050A250A120167
:10096900E3EA90002FF030E701E4250A04D50A04F0
:1009790020050114120B40E4C0E0120BCA90002FAD
:10098900E0601320E70714F01207C4802204F0D0B6
:10099900E014C0E07F001207C4E50A60071207BB34
:1009A900150A800B3005031207BBD0E0020816D0E8
:1009B900E00480C4120B22609EE50A041201E39050
:1009C900002FEAF0E50A2005026001042404120B55
:0109D90040DD
:1009DA0074FF04C0E0120BCA1207C4E50A2005021C
:1009EA0060031207BBD0E0B50AE87F451207CE9034
:1009FA00002FE07F2B30E7047F2DF404C0E01207BC
:100A0A00DCD0E075F00A84C0F01207C5D0E0120706
:100A1A00C5020816791080027908C206C208800841
:100A2A00D2D5790A8004790AC2D5E50A047002F59A
:100A3A000AE4FAFDFEFF120799FC7B082001131253
:100A4A000799FD7B1030000A120799FE120799FFD9
:100A5A007B20EC3382D592D55013C3E43000069F35
:100A6A00FFE49EFEE42001039DFDE49CFCE4CBF838
:100A7A00C201EC700CCFCECDCCE824F8F870F3802C
:100A8A0017C3EF33FFEE33FEED33FDEC33FCEB33EC
:100A9A00FB994002FB0FD8E9EB300105F8D0E0C41E
:100AAA0048B201C0E00AEC4D4E4F78207B0070C27C
:100ABA00EAB50A0040BCC0E0120B42D0F0D0E020F8
:100ACA000104C4C0E0C4B201C0F01207C5D0F0D519
:100ADA00F0EB02081612067808B3530A1E58088467
:100AEA004C0880420A224F0A2A440A2A4908994392
:100AFA000A3055095D4609BD450927470BFD5008CF
:100B0A00882D088C2E08AF2B08902308AD200BE601
:100B1A002A084848000008A7E50AB4FF03750A0630
:100B2A00120799FC120799FD120799FE120799FFFD
:100B3A00900028020220790AA2D520031430050960
:100B4A00B910020404B9080104A2D5200602500112
:100B5A00042002689202B509005034C0E07F2030B8
:100B6A0003197F30A20272067205500F120B99C246
:100B7A0002C206C205C2087F30800F300503E9C0F1
:100B8A00E01207DC300503D0E0F9D0E0B509CC303B
:100B9A0005177F30B9100C1207DC7F583004077F25
:100BAA00788003B908031207DC3002057F2D02079B
:100BBA00DC7F202008F87F2B2006F322920280CFC8
:100BCA007F00B40700500B2428F582E43400F58333
:100BDA00E0FF22286E756C6C2900D2011207993049
:100BEA0001F8C201780930D50108F60208482D50EB
:100BFA004349581207992403B405004001E4900BB5
:100C0A00F8931207CD743A1207CDD203750904027C
:020C1A000A1EB0
:10019900E9D2E7C933E833F892D5EDD2E7CD33ECAC
:0701A90033FC5002B2D52225
:1001B000EC30E7100FBF000C0EBE00080DBD0004B0
:1001C0000BEB6014A2D5EB13FCED92E7FD2274FF5C
:1001D000FCFDFEFF22E480F8A2D574FF13FC7D80B5
:0301E000E480EFC9
:1001E300F920E73624F950037907E4F42402FBE508
:1001F30082158270021583DBF6E024FB501BE96055
:1002030014E4F0E582158270021583E004F0B40A69
:0D02130008E4F0D9EE7401F00A22C2D522F1
:10022000ED33EC3392D5FA602AB4FF33EDC2E77BAD
:10023000FF60067A027945E4227A02794E20D504DD
:100240007A027949224E614E002B494E46002D49D3
:100250004E4600E47A08F0A3DAFC7B00740722C063
:1002600083C082ECC0E0EDC0E0EEC0E0EFC0E0EAA9
:1002700075F010A4CAABF075F04DA42BFBE435F07B
:10028000FCEA2410FAEB34C5FBEC34D9FCEDC2E7F0
:10029000FF75F056A4F42411C5F0F434C58FF0A412
:1002A0002AE5F03BE43CF020E7141204EDD0E0FF37
:1002B000D0E0FED0E0FDD0E0FC1204208014F40475
:1002C0001204EDD0E0FFD0E0FED0E0FDD0E0FC1263
:1002D000001ED082D083E0FAEDD2E7CD33EC332498
:1002E00082FBE4C3CF33CFCE33CECD33CD33DBF37C
:1002F0007B0775F00A846004F0A31B0AE5F0F0A305
:100300008FF0740AA4FFACF08EF0740AA42CFEAC3B
:10031000F050010C8DF0740AA42CFDE435F0F0A32C
:05032000DBDE74072282
:100325000201CEE86480F8E933E83360110460F037
:10033500ED33EC337009E8FCE9FDEAFEEBFF22043E
:1003450060DED3EB9FEA9EE99DE8C2E78CF0C2F739
:1003550095F0400CE8CCF8E9CDF9EACEFAEBCFFB05
:1003650012019985D0F05804700320D5B3E80470C4
:10037500075002B2D50201D892D5EC0460F7E4CC5F
:10038500C0E0C398F8603B94186008400DD0E0FBCE
:100395000201B0E4FBFAC9FC8028E830E406E4C9B0
:1003A500FBE4CAFCE830E305E4C9CACBFCE8540722
:1003B5006010F8C3E913F9EA13FAEB13FBEC13FC2D
:1003C500D8F130F52FC3E49CFCEF9BFFEE9AFEEDD0
:1003D50099FDD0E0FBEF4E4D4C701222DB0302017C
:1003E500D5EC2CFCEF33FFEE33FEED33FDED30E7BE
:1003F500EB0201B0EF2BFFEE3AFEED39FDD0E0FB4D
:1004050050130BBB00030201D8ED13FDEE13FEEFF5
:0804150013FFEC13FC0201B01F
:10041D000201D8EC5D046005E8590470030201CEB9
:10042D00120199580460F6EC4860F2EC7004FDFE80
:10043D00FF22C860DB2481C85009C39860025006B2
:10044D000201D59850CAF582E9294B4A7005AB8255
:10045D000201C475F0007C1A7880C3EF9BEE9AED13
:10046D0099400DC3EF9BFFEE9AFEED99FDE842F02A
:10047D00DC23ACF0D0E0FFD0E0FED0E0FDAB82207D
:10048D00E7101BEB60BAEC2CFCEF33FFEE33FEED07
:10049D0033FD0201B0E803F830E705C0F075F00058
:1004AD00EF2FFFEE33FEED33FD40B830E7C280AAEB
:1004BD003F8000004120000042C80000447A000047
:1004CD00461C400047C35000497424004B189680C9
:1004DD004CBEBC205A0E1BCA6753C21C749DC5AEC0
:1004ED00FB60065407601C232312051BEB54386078
:1004FD000912050712051612001EECF8EDF9EEFAB9
:10050D00EFCB22EB12051680F1543803241C900416
:10051D00BDFE93FC0EEE93FD0EEE930ECE93FF22D9
:1012EC0002152DE493A3F8E493A34003F68001F2D6
:1012FC0008DFF48029E493A3F85407240CC8C33303
:10130C00C4540F4420C8834004F456800146F6DFD1
:10131C00E4800B01020408102040809018CBE47E7E
:10132C00019360BCA3FF543F30E509541FFEE493C6
:10133C00A360010ECF54C025E060A840B8E493A38D
:10134C00FAE493A3F8E493A3C8C582C8CAC583CAB8
:10135C00F0A3C8C582C8CAC583CADFE9DEE780BE70
:0118D3000014
:10052D00BB010689828A83E0225002E722BBFE02CC
:09053D00E32289828A83E49322FF
:10054600BB010CE58229F582E5833AF583E022506A
:1005560006E92582F8E622BBFE06E92582F8E222B4
:0D056600E58229F582E5833AF583E49322CE
:10057300BB010689828A83F0225002F722BBFE0167
:02058300F32261
:10058500F8BB010DE58229F582E5833AF583E8F0AC
:10059500225006E92582C8F622BBFE05E92582C858
:0205A500F22240
:1005A700BC000BBE0029EF8DF084FFADF022E4CC38
:1005B700F875F008EF2FFFEE33FEEC33FCEE9DEC01
:1005C700984005FCEE9DFE0FD5F0E9E4CEFD22ED47
:1005D700F8F5F0EE8420D21CFEADF075F008EF2F91
:1005E700FFED33FD4007985006D5F0F222C398FD82
:0505F7000FD5F0EA221F
:1005FC00C5F0F8A3E028F0C5F0F8E582158270028A
:06060C001583E038F02226
:10061200A3F8E0C5F025F0F0E5821582700215839B
:06062200E0C838F0E822F8
:1015C000C2D5E830E70FB2D5E4C39BFBE49AFAE456
:1015D00099F9E498F8EC30E717B2D51215F612072E
:1015E00007E4C39BFBE49AFAE499F9E498F88003D2
:1015F00012070730D50DE4C39FFFE49EFEE49DFD76
:04160000E49CFC2248
:0E062800C3E49FFFE49EFEE49DFDE49CFC22E3
:10063600EB9FF5F0EA9E42F0E99D42F0EC6480C83B
:0606460064809845F022DB
:0C064C00ECF0A3EDF0A3EEF0A3EFF02221
:10065800F8E0FBA3A3E0F925F0F0E582158270022B
:070668001583E0FA38F022CF
:09066F00EBF0A3EAF0A3E9F0228C
:10067800D083D082F8E4937012740193700DA3A311
:1006880093F8740193F5828883E473740293686025
:06069800EFA3A3A380DF25
:10069E00D083D082F8E4937012740193700DA3A3EB
:1006AE0093F8740193F5828883E473740293B5F022
:0D06BE00067403936860E9A3A3A3A380D88A
:10172400EFB40A07740D12172F740A309811A89990
:10173400B8130CC2983098FDA899C298B811F63025
:0717440099FDC299F59922FD
:1006CB0075F008758200EF2FFFEE33FECD33CDCCE6
:1006DB0033CCC58233C5829BED9AEC99E582984069
:1006EB000CF582EE9BFEED9AFDEC99FC0FD5F0D646
:1006FB00E4CEFBE4CDFAE4CCF9A88222B800C1B970
:10070B000059BA002DEC8BF084CFCECDFCE5F0CBAD
:10071B00F97818EF2FFFEE33FEED33FDEC33FCEBE6
:10072B0033FB10D703994004EB99FB0FD8E5E4F9A1
:10073B00FA227818EF2FFFEE33FEED33FDEC33FC8E
:10074B00C933C910D7059BE99A4007EC9BFCE99A82
:10075B00F90FD8E0E4C9FAE4CCFB2275F010EF2FC7
:10076B00FFEE33FEED33FDCC33CCC833C810D707C7
:10077B009BEC9AE899400AED9BFDEC9AFCE899F802
:0E078B000FD5F0DAE4CDFBE4CCFAE4C8F92295
:00000001FF
