:03000000021128C2
:0C112800787FE4F6D8FD75817102116F2C
:1014FB002020202020253032754300253032752DD9
:0A150B00253032752D2530327500B1
:0D15BA00014E000338173B320327000000EC
:1014430012156A12157B1215C812000E7B007A0062
:10145300793812120DD2A9D2ABD2AF120B45120CAE
:03146300DA80F834
:03000B00020FB72A
:100FB700C0E0C0F0C083C082C0D075D000C000C000
:100FC70001C002C003C004C005C006C007E4FAF9A7
:100FD700F8E5262401F526EA3525F525E93524F532
:100FE70024E83523F523E54A45496008E54A154ACB
:100FF70070021549E47BC8FAF9F8AF26AE25AD248F
:10100700AC231212EEAC00AD01AE02AF03EC4D4EB5
:101017004F7042FAF9F8E52E2401F52EEA352DF541
:101027002DE9352CF52CE8352BF52BE54A4549609C
:1010370021E47B02AF2EAE2DAD2CAC2B1212EEAC01
:1010470000AD01AE02AF03EC4D4E4F7005754E017A
:101057008003754E00D007D006D005D004D003D04A
:1010670002D001D000D0D0D082D083D0F0D0E032EF
:03001B0002107759
:10107700C0E0C0F0C083C082C0D075D000C000C03F
:1010870001C002C003C004C005C006C007E4FAF9E6
:10109700F8E5482401F548EA3547F547E93546F5C7
:1010A70046E83545F5450551E55170020550640A96
:1010B70045507004F550F551054CE54C7002054B51
:1010C700FFAE4BBE0109BFF406754B00754C00E43B
:1010D7007BE87A03F9F8AF48AE47AD46AC45121244
:1010E700EEAC00AD01AE02AF03EC4D4E4F70020502
:1010F7002F7B007A007930AD4F12125F054FE54F15
:10110700B40803754F00D007D006D005D004D0032C
:10111700D002D001D000D0D0D082D083D0F0D0E0A0
:011127003295
:100B4500E55145506003020CD975500075510112ED
:100B55000DF3E54D6F5FFEE54D6FFDEF70047C0114
:100B650080027C00ED5CF9EE65226005E4F549F54F
:100B75004A8F4D8E22AF06EF24FB7003020C311411
:100B85007003020C90147003020CA424036003028A
:100B95000CB9E52A14602B24F06037146043146007
:100BA5004F24F2605A1460661460722423600302B5
:100BB5000CB9052AE52A64026003020CB9F52A027C
:100BC5000CB9052AE52A64026003020CB9F52A026C
:100BD5000CB9E52760051527020CB9752717020C16
:100BE500B9E52860051528020CB975283B020CB932
:100BF500E52960051529020CB975293B020CB9E5F3
:100C05003860051538020CB9753817020CB9E53985
:100C150060051539020CB975393B020CB9E53A6026
:100C250005153A020CB9753A3B020CB9E52A24EED2
:100C3500601D14602624F2602E1460371460402471
:100C45001270710527E52764187069F52780650519
:100C550028E528643C705DF52880590529E5296457
:100C65003C7051F529804D0538E53864187045F517
:100C75003880410539E539643C7039F539803505E9
:100C85003AE53A643C702DF53A8029E52A54F0643A
:100C9500106003752A10052AE52AB414178012E599
:100CA5002A54F064206003752A20052AE52AB42415
:100CB50003E4F52AB90403E4F52AE527B53810E578
:100CC50028B5390BE529B53A06754913754A88AF34
:040CD5004E12158C1A
:010CD90022F8
:100CDA00E54C454B6003020DF2754B00754C01E57E
:100CEA002A54F024F0605E24F07003020D9424204C
:100CFA006003020DE0E52AB4011B12139C8F3B75B9
:100D0A0055FF7556147557FBE53B75F00A847558FF
:100D1A0000F55980247B007A0079381212A975559A
:100D2A00FF755615755706755800853859755A0056
:100D3A0085395B755C00853A5D7B007A00793C12E7
:100D4A000732020DE07B007A0079381212A9755534
:100D5A00FF755615755706755800853859755A0026
:100D6A0085395B755C00853A5D7B007A00793C12B7
:100D7A000732E52F30E05FE52A24EE6009146008A7
:100D8A0024027052803A804080467555FF75561588
:100D9A00755706755800852759755A0085285B7559
:100DAA005C0085295D7B007A00793C120732E52FC9
:100DBA0030E023E52A24DE600F1460142402701642
:100DCA00753CFF753DFF800E753FFF7540FF80063D
:100DDA007542FF7543FF7555007556007557307B90
:090DEA00007A00793C120EED22A2
:10148600EF1FAA0670011E4A6013E4FCFDC3ED942B
:0D14960074EC940250EA0DBD00010C80F0D2
:0114A3002226
:10146600E4FDFCC3ED9FEC9E5015E4FAFB0BBB00BC
:0F147600010ABA54F8BBEAF50DBD00010C80E481
:011485002244
:10133200EE7032EF24FB601314601914601F240353
:101342007023E5A0541F4480F5A022E5A0541F4459
:10135200A0F5A022E5A0541F44C0F5A022E5A054A8
:061362001F44E0F5A0228B
:0E15C8007580FF7F047E0012133253A01F2295
:0D000E00E4F5807F05FE12133253A01F227F
:10154600E4FEC297EF1392A3EFC313FFD2970EBE2A
:0215560008F09B
:011558002270
:0814DF0075F00A84E5F02EFD12
:1014E700C29300C29700D29300121546AF0512159A
:0414F70046C2932234
:10136800E4FDC29300C29700D29300121546E4FF31
:10137800C297EDC313FD30A303430580D2970FBF77
:1013880008EEC29300C29700D29700C2A300D2A36E
:0313980000AF059E
:01139B00222F
:10120D00E4FD7F8E1214E712051DFF75F00A84C4EC
:10121D0054F0FEEF7F841214DF900001120536FFAB
:10122D0075F00A84C454F0FEEF7F821214DF900033
:10123D0002120536FF75F00A84C454F0FEEF75F006
:10124D000A84E5F02EFD7F801214E77D807F8E02EB
:02125D0014E794
:1012A9007F85121368EFC4540F75F00AA4FEEF543A
:1012B9000F2E1205637F83121368EFC4540F75F064
:1012C9000AA4FEEF540F2E9000011205757F8112BA
:1012D9001368EFC4540F75F00AA4FEEF540F2E9053
:0512E900000202057582
:0415D600D2A07F051B
:0815DA0000AE071FEE70F922BC
:0F159C00D2A11215D6C2A17F051215DAC2A02264
:0C15E200C2A11215D6D2A17F050215DAB5
:10152F00C2A0A20992A17F051215DA1215D6C2A088
:07153F00D2A17F050215DABD
:101559001215D6A2A1920AC2A07F051215DAA20A13
:01156900225F
:0213C900AD076E
:1013CB00E4FCC2A07F051215DAED30E704D2A18050
:1013DB0002C2A17F051215DAD2A0ED25E0FD7F0533
:0913EB001215DA0CBC08DBC2A0EB
:0113F40022D6
:1014C200E4FC1215D6ED25E0FD30A103430501C26F
:0C14D200A07F051215DA0CBC08E8AF057D
:0114DE0022EB
:100DF300C2C4D2C2D2B5D2B4AFB07E00D2C4C2C2D2
:100E0300EFC4F8540FC868FFEEC454F048FEE5B0D1
:100E1300540FFDEF4DD2C2C2B5C4F8540FC868FFDA
:100E2300EEC454F048FEE5B0540FFDEF4DD2B5C209
:100E3300B4C4F8540FC868FFEEC454F048FEE5B0DC
:100E4300540FFDEF4DF4FFEEF4FEEF8EF01205DBD1
:100E53000EE200010EDD00020ED800040ED30008DE
:100E63000ECE00100EC900200EC400400EBF00803D
:100E73000EBA01000EB502000EB004000EAB08005E
:100E83000EA610000EA120000E9C40000E978000BD
:100E930000000EE7755204804E7552058049755265
:100EA300068044755207803F755208803A7552098F
:100EB300803575520A803075520B802B75520C8029
:100EC3002675520D802175520E801C75520F8017A6
:100ED3007552108012755211800D7552128008756B
:090EE30052138003E4F552AF52F2
:010EEC0022E3
:10158C00EFF4F580E5A0541F4480F5A053A01F2272
:0415AB007F057E003A
:0B15AF00EF1FAC0670011E4C70F6220E
:0214A400AD0792
:1014A600E4FBC294ED1392941215ABD294EDC313E0
:0C14B600FD0BBB08ED7F057E000215AFAA
:10151500E4FBC294EDC313FDD294309403430580DC
:091525001215AB0BBB08EBAF057E
:01152E00229A
:1013F500C200D2947F0C7E001215AFC2947F507E3E
:10140500001215AFD2947F0A7E001215AFA29492F6
:06141500001215ABA2005D
:01141B0022AE
:10139C001213F57FCC1214A47F441214A41213F56B
:1013AC007FCC1214A47FBE1214A4121515AA071216
:0C13BC001515EFFE7C00E42AFFEC3EFE5D
:0113C8002202
:060EED008B528A53895468
:100EF300E4F559F558E558C394084003020FB6AB1F
:100F030052AA53A9548559827583001205361205D6
:100F1300B50F79200F7E2D0F832E0F42300F4731EF
:100F23000F4C320F51330F56340F5B350F60360FB2
:100F330065370F6A380F6F390F744300000F8675DA
:100F43005AC0803F755AF9803A755AA48035755A4C
:100F5300B08030755A99802B755A928026755A82C3
:100F63008021755AF8801C755A808017755A9080B5
:100F730012755AC6800D755AFF8008755ABF8003D3
:100F8300755A7F855982758300A3AB52AA53A9541E
:100F9300120536B42E05535A7F0559AB55AA56A9E7
:100FA30057855882758300E55A120575055805590A
:030FB300020EF833
:010FB6002218
:10125F008B6E8A6F89708D717580FF7F077E00128C
:10126F00133253A01FAF717401A807088002C33354
:10127F00D8FCF5807F067E0012133253A01FAB6E91
:10128F00AA6FA970857182758300120536F5807F6C
:0A129F00077E0012133253A01F2235
:1011B4007E0AC290758AF4758CFFD28CAD061EED42
:1011C400600C308DFDA290B39290C28D80EEC28CE3
:1011D400E4F58AF58CD28C309103308DFAC28C30D0
:1011E4008D06C28D7FFF8020AF8CEFFEAD8A7C0020
:1011F400E42DFDEC3EFCE41201297B967A43798BC5
:08120400783C12001E12016289
:01120C0022BF
:10156A00438E805389F0758A20758CD1C28DD28CB6
:01157A00224E
:10157B00438E4053890F758B20758DD1C28FD28EC0
:01158B00223D
:10001E00EC4D6011E8497017ED33EC3304600DE4DC
:10002E00FCFFFEFD22E933E8330470F80201CE1224
:10003E00019958046009E4CC248150062850090225
:10004E0001D82840030201D5C0E0EB4A7044B980C4
:10005E0006D0E0FB0201C4EF4E701CBD8008EBFF22
:10006E00EAFEE9FD80EBE98DF0A4FEE5F002010762
:10007E00E9CDF9EAFEEBFFEF89F0A4FCE5F0CE89BD
:10008E00F0A42EFFE435F0CD89F0A42DFEE435F07A
:10009E008067EF4E7005BD80D780C3EF8BF0A4ACA8
:1000AE00F0EE8BF0A42CFCE435F0F8EF8AF0A42CE3
:1000BE00E5F038FCE433CB8DF0A42CFCE5F03BF8F6
:1000CE00EE8AF0A42CFCE5F038F8E433CF89F0A4E6
:1000DE002CFCE5F038CF3400CE89F0A42FFFE5F0EC
:1000EE003EFEE433C98DF0A42EFEE5F039CD8AF044
:1000FE00A42FFFE5F03EFEE43DFD33D0E0FB5007BC
:10010E000BBB000F0201D8EC2CFCEF33FFEE33FEDD
:06011E00ED33FD0201B00B
:1001240075F020800E75F010800575F0087D007E56
:10013400007F003392D530D503120597EC3340107D
:10014400EF33FFEE33FEED33FDEC33FCD5F0ED225F
:0E015400E5F0247EA2D513CC92E7CDCEFF229B
:10016200EDD2E7CD33EC3392D524814006E4FFFE95
:10017200FDFC22FCE4CFCECDCC24E0501174FF80F4
:10018200EDC3CC13CCCD13CDCE13CECF13CF047091
:07019200F030D5DE020597F5
:1006D600E5692455F8E6056922785230070278550F
:1006E600E475F0011205A502051D2000EB7F2ED250
:1006F600008018EF540F2490D43440D4FF30040BFC
:10070600EF24BFB41A0050032461FFE56A600215A6
:100716006A056DE56D7002056C30070D7852E4755B
:10072600F0011205A5EF02056302141C7403D2073B
:100736008003E4C207F5698B528A538954E4F56A4B
:10074600F56CF56DE56A60077F2012071180F57577
:100756006BFFC201C200C202C203C205C206C208C2
:100766001206DFFF700D3007057F00120722AF6DFE
:10077600AE6C22B4255FC2D5C2041206DFFF24D0B8
:10078600B40A00501A75F00A786A30D50508B6FF23
:100796000106C6A426F620D5047002D20380D92409
:1007A600CFB41A00EF5004C2E5D204020A0FD201F8
:1007B60080C6D20080C0D20280BCD2D580BAD20513
:1007C60080B47F201207112002077401B56A004029
:1007D600F11206D6FF12071102074AD208D2068086
:1007E600951206D6FB1206D6FA1206D6F94A4B70B1
:1007F6000679067A0B7BFF20022EE56A602A7E00C8
:100806008E8275830012053660060EEE656B70F0FB
:10081600C2D5EBC0E0EAC0E0E9C0E0EE120A6FD054
:10082600E0F9D0E0FAD0E0FB12051DFF60AAEBC0AC
:10083600E0EAC0E0E9C0E0120711D0E02401F9D0F7
:10084600E03400FAD0E0FBE56B0460DCD56BD980C0
:1008560087D20280A2120A5260F7E56B7001041279
:1008660001E3A96B600DE56B600914F56B120AF9DB
:10087600EF60F3EA30E702F404C3995077EAF4250F
:100886006B0430E701E404F56B800D120A5260C177
:10089600EA056B256B1201E3EA7868F630E701E4B6
:1008A600256B04D56B0420050114120A6FE4C0E021
:1008B600120AF97868E6601320E70714F61206F9BB
:1008C600802204F6D0E014C0E07F001206F9E56B42
:1008D60060071206F0156B800B3005031206F0D088
:1008E600E002074AD0E00480C5120A5260A0E56B18
:1008F600041201E37868EAF6E56B2005026001045C
:050906002404120A6F39
:10090B0074FF04C0E0120AF91206F9E56B20050228
:10091B0060031206F0D0E0B56BE87F451207037851
:10092B0068E67F2B30E7047F2DF404C0E01207113B
:10093B00D0E075F00A84C0F01206FAD0E01206FA85
:10094B0002074A791080027908C206C2088008D2D1
:10095B00D5790A8004790AC2D5E56B047002F56B70
:10096B00E4FAFDFEFF1206D6FC7B082001131206EB
:10097B00D6FD7B1030000A1206D6FE1206D6FF7B80
:10098B0020EC3382D592D55013C3E43000069FFF81
:10099B00E49EFEE42001039DFDE49CFCE4CBF8C245
:1009AB0001EC700CCFCECDCCE824F8F870F38017A7
:1009BB00C3EF33FFEE33FEED33FDEC33FCEB33FBD8
:1009CB00994002FB0FD8E9EB300105F8D0E0C448A1
:1009DB00B201C0E00AEC4D4E4F78207B0070C2EAAA
:1009EB00B56B0040BCC0E0120A71D0F0D0E0200122
:1009FB0004C4C0E0C4B201C0F01206FAD0F0D5F0C6
:100A0B00EB02074A1205B507E753094E5807B84CD6
:100A1B0007B44209524F095A44095A4907CD4309B1
:100A2B00605508914608EF45085B470B265007BCFD
:100A3B002D07C02E07E32B07C42307E1200B0F2A3A
:100A4B00077C48000007DBE56BB4FF03756B0612F0
:100A5B0006D6FC1206D6FD1206D6FE1206D6FF7877
:100A6B0061020212790AA2D5200314300509B910CC
:100A7B00020404B9080104A2D52006025001042087
:100A8B0002689202B56A005034C0E07F203003192F
:100A9B007F30A20272067205500F120AC8C202C240
:100AAB0006C205C2087F30800F300503E9C0E01293
:100ABB000711300503D0E0F9D0E0B56ACC3005174B
:100ACB007F30B9100C1207117F583004077F7880E4
:100ADB0003B908031207113002057F2D0207117F9E
:100AEB00202008F87F2B2006F322920280CF7F0074
:100AFB00B4070050052461F8E6FF22286E756C6C74
:100B0B002900D2011206D63001F8C201786A30D51D
:100B1B000108F602077C2D504349581206D62403D0
:100B2B00B405004001E4900B2193120702743A12B2
:0A0B3B000702D203756A0402094E96
:10019900E9D2E7C933E833F892D5EDD2E7CD33ECAC
:0701A90033FC5002B2D52225
:1001B000EC30E7100FBF000C0EBE00080DBD0004B0
:1001C0000BEB6014A2D5EB13FCED92E7FD2274FF5C
:1001D000FCFDFEFF22E480F8A2D574FF13FC7D80B5
:0301E000E480EFC9
:1001E300F920E72824F950037907E4F42402FB18E3
:1001F300DBFDE624FB5014E9600DE4F618E604F693
:0F020300B40A08E4F6D9F57401F60A22C2D5222E
:10021200ED33EC3392D5FA602AB4FF33EDC2E77BBB
:10022200FF60067A027937E4227A02794020D50407
:100232007A02793B224E614E002B494E46002D49EF
:100242004E4600E47A08F608DAFC7B00740722E8DE
:10025200C0E0ECC0E0EDC0E0EEC0E0EFC0E0EA7567
:10026200F010A4CAABF075F04DA42BFBE435F0FC02
:10027200EA2410FAEB34C5FBEC34D9FCEDC2E7FFFB
:1002820075F056A4F42411C5F0F434C58FF0A42AF5
:10029200E5F03BE43CF620E7141204DDD0E0FFD0A9
:1002A200E0FED0E0FDD0E0FC1204108014F4041251
:1002B20004DDD0E0FFD0E0FED0E0FDD0E0FC120093
:1002C2001ED0E0F8E6FAEDD2E7CD33EC332482FB20
:1002D200E4C3CF33CFCE33CECD33CD33DBF37B0785
:1002E20075F00A846004F6081B0AE5F0F6088FF040
:1002F200740AA4FFACF08EF0740AA42CFEACF05089
:10030200010C8DF0740AA42CFDE435F0F608DBDE56
:030312007407224B
:100315000201CEE86480F8E933E83360110460F047
:10032500ED33EC337009E8FCE9FDEAFEEBFF22044E
:1003350060DED3EB9FEA9EE99DE8C2E78CF0C2F749
:1003450095F0400CE8CCF8E9CDF9EACEFAEBCFFB15
:1003550012019985D0F05804700320D5B3E80470D4
:10036500075002B2D50201D892D5EC0460F7E4CC6F
:10037500C0E0C398F8603B94186008400DD0E0FBDE
:100385000201B0E4FBFAC9FC8028E830E406E4C9C0
:10039500FBE4CAFCE830E305E4C9CACBFCE8540732
:1003A5006010F8C3E913F9EA13FAEB13FBEC13FC3D
:1003B500D8F130F52FC3E49CFCEF9BFFEE9AFEEDE0
:1003C50099FDD0E0FBEF4E4D4C701222DB0302018C
:1003D500D5EC2CFCEF33FFEE33FEED33FDED30E7CE
:1003E500EB0201B0EF2BFFEE3AFEED39FDD0E0FB5D
:1003F50050130BBB00030201D8ED13FDEE13FEEF06
:0804050013FFEC13FC0201B02F
:10040D000201D8EC5D046005E8590470030201CEC9
:10041D00120199580460F6EC4860F2EC7004FDFE90
:10042D00FF22C860DB2481C85009C39860025006C2
:10043D000201D59850CAF582E9294B4A7005AB8265
:10044D000201C475F0007C1A7880C3EF9BEE9AED23
:10045D0099400DC3EF9BFFEE9AFEED99FDE842F03A
:10046D00DC23ACF0D0E0FFD0E0FED0E0FDAB82208D
:10047D00E7101BEB60BAEC2CFCEF33FFEE33FEED17
:10048D0033FD0201B0E803F830E705C0F075F00068
:10049D00EF2FFFEE33FEED33FD40B830E7C280AAFB
:1004AD003F8000004120000042C80000447A000057
:1004BD00461C400047C35000497424004B189680D9
:1004CD004CBEBC205A0E1BCA6753C21C749DC5AED0
:1004DD00FB60065407601C232312050BEB54386098
:1004ED00091204F712050612001EECF8EDF9EEFAEA
:1004FD00EFCB22EB12050680F1543803241C900437
:10050D00ADFE93FC0EEE93FD0EEE930ECE93FF22F9
:10113400021443E493A3F8E493A34003F68001F27A
:1011440008DFF48029E493A3F85407240CC8C333BC
:10115400C4540F4420C8834004F456800146F6DF8B
:10116400E4800B01020408102040809015BAE47E4C
:10117400019360BCA3FF543F30E509541FFEE49380
:10118400A360010ECF54C025E060A840B8E493A347
:10119400FAE493A3F8E493A3C8C582C8CAC583CA72
:1011A400F0A3C8C582C8CAC583CADFE9DEE780BE2A
:0115C7000023
:10051D00BB010689828A83E0225002E722BBFE02DC
:09052D00E32289828A83E493220F
:10053600BB010CE58229F582E5833AF583E022507A
:1005460006E92582F8E622BBFE06E92582F8E222C4
:0D055600E58229F582E5833AF583E49322DE
:10056300BB010689828A83F0225002F722BBFE0177
:02057300F32271
:10057500F8BB010DE58229F582E5833AF583E8F0BC
:10058500225006E92582C8F622BBFE05E92582C868
:02059500F22250
:1012EE00C2D5E830E70FB2D5E4C39BFBE49AFAE42B
:1012FE0099F9E498F8EC30E717B2D51213241206D8
:10130E0044E4C39BFBE49AFAE499F9E498F8800369
:10131E0012064430D50DE4C39FFFE49EFEE49DFD0E
:04132E00E49CFC221D
:0E059700C3E49FFFE49EFEE49DFDE49CFC2275
:1005A500FAE6FB0808E6F925F0F618E6CA3AF62257
:1005B500D083D082F8E4937012740193700DA3A3D5
:1005C50093F8740193F5828883E4737402936860E9
:0605D500EFA3A3A380DFE9
:1005DB00D083D082F8E4937012740193700DA3A3AF
:1005EB0093F8740193F5828883E473740293B5F0E6
:0D05FB00067403936860E9A3A3A3A380D84E
:10141C00EFB40A07740D121427740A309811A899A6
:10142C00B8130CC2983098FDA899C298B811F63030
:07143C0099FDC299F5992208
:1006080075F008758200EF2FFFEE33FECD33CDCCA9
:1006180033CCC58233C5829BED9AEC99E58298402C
:100628000CF582EE9BFEED9AFDEC99FC0FD5F0D609
:10063800E4CEFBE4CDFAE4CCF9A88222B800C1B933
:100648000059BA002DEC8BF084CFCECDFCE5F0CB71
:10065800F97818EF2FFFEE33FEED33FDEC33FCEBAA
:1006680033FB10D703994004EB99FB0FD8E5E4F965
:10067800FA227818EF2FFFEE33FEED33FDEC33FC52
:10068800C933C910D7059BE99A4007EC9BFCE99A46
:10069800F90FD8E0E4C9FAE4CCFB2275F010EF2F8B
:1006A800FFEE33FEED33FDCC33CCC833C810D7078B
:1006B8009BEC9AE899400AED9BFDEC9AFCE899F8C6
:0E06C8000FD5F0DAE4CDFBE4CCFAE4C8F92259
:00000001FF
